:1000000024C148C321C33AC136C338C1B5C236C1C1
:1000100035C134C133C132C131C130C12FC12EC14C
:100020002DC10000000000000000002F00000000B3
:100030000700070000147F147F1400242A7F2A126F
:10004000006264081323003649552250000005035E
:10005000000000001C224100000041221C0000148E
:10006000083E08140008083E0808000000A06000D0
:100070000008080808080000606000000020100860
:100080000402003E5149453E0000427F40000042CC
:1000900061514946002141454B31001814127F102F
:1000A000002745454539003C4A494930000171095E
:1000B000050300364949493600064949291E000012
:1000C00036360000000056360000000814224100B9
:1000D00000141414141400004122140800020151E9
:1000E000090600324959513E007C1211127C007FF2
:1000F00049494936003E41414122007F4141221C8D
:10010000007F49494941007F09090901003E4149F1
:10011000497A007F0808087F0000417F41000020E5
:1001200040413F01007F08142241007F4040404091
:10013000007F020C027F007F0408107F003E4141D7
:10014000413E007F09090906003E4151215E007FC2
:10015000091929460046494949310001017F010139
:10016000003F4040403F001F2040201F003F4038DC
:10017000403F00631408146300070870080700611B
:100180005149454300007F41410000552A552A55F9
:10019000000041417F000004020102040040404091
:1001A0004040000001020400002054545478007FB5
:1001B0004844443800384444442000384444487F8C
:1001C00000385454541800087E0901020018A4A4F1
:1001D000A47C007F080404780000447D40000040B7
:1001E00080847D00007F102844000000417F400093
:1001F000007C04180478007C080404780038444427
:10020000443800FC242424180018242418FC007C02
:100210000804040800485454542000043F4440207B
:10022000003C4040207C001C2040201C003C403012
:10023000403C004428102844001CA0A0A07C00449E
:1002400064544C4414141414141411241FBECFED20
:10025000CDBF10E0A0E6B0E0EAE2F7E002C0059012
:100260000D92A239B107D9F720E0A2E9B0E001C0B0
:100270001D92A939B207E1F75AD155C2C1CE6130FA
:1002800011F4DC980DC0DC9A0BC0882314F4DD9ABD
:1002900001C0DD98DE98880FDE9A9150B1F708957D
:1002A00098E0F3CFCF93DF9361E08CE0E8DF61E08B
:1002B00080E8E5DFC8EFD1E060E080E0E0DF219793
:1002C000D9F7DF91CF9108958AB388678ABBDB980D
:1002D00085E08A95F1F70000DB9A85E08A95F1F7D1
:1002E000000061E081E2CBDF61E081EAC8DF61E02C
:1002F00083E1C5DF61E084E0C2DF61E080E2BFDF6F
:1003000061E08CE0BCDFCEDF0895CF93C82F862F4D
:1003100061E08064B4DF61E08C2F8068B0DFCF9152
:1003200008951F93CF93DF938052C82FD0E0C80F5A
:10033000D11DC80FD11DCC0FDD1FCE5DDF4F10E0EA
:10034000FE01849160E09BDF1F5F21961630C1F7AC
:10035000DF91CF911F910895CF93DF93EA01D5DF0D
:100360008881882329F02196DCDF89918111FCCFD7
:10037000DF91CF910895EF92FF920F931F93CF9348
:10038000DF93CDB7DD27C451CDBF7C01CB010097F2
:1003900029F480E3F7018083118215C01C8A21E0D3
:1003A00030E0FE0174960AE010E0B8019FD180634E
:1003B0008293862F972F2F5F3F4F0097B1F7A901A8
:1003C000BF01C701A7D1CC5ECDBFDF91CF911F91F7
:1003D0000F91FF90EF9008951F93CF93DF93CDB7C8
:1003E000DD27CA50CDBF809194009091950045972C
:1003F00020F41092950010929400809194009091B6
:100400009500892B09F05BC080919600873408F431
:1004100050C055C010929600809194009091950024
:1004200069E070E063D117E3160F612F70E0CE0131
:100430000196A1DF40E650E060E08BE18DDF45E80A
:1004400050E062E083E288DF1A3358F446E650E079
:1004500063E084E181DF46E750E064E084E17CDF33
:1004600023C0143688F44FE650E063E08FE074DF79
:10047000AE014F5F5F4F63E083E26EDF4BE850E019
:1004800064E089E169DF10C04FE650E063E08FE08F
:1004900063DFAE014F5F5F4F63E08FE15DDF4BE8ED
:1004A00050E064E089E158DF1092950010929400CA
:1004B0000EC0809196008F5F80939600ADCF8091A3
:1004C000940090919500892B09F0A4CFA5CFC65F29
:1004D000CDBFDF91CF911F91089585B7877E806151
:1004E00085BF85B7806285BF85B7846885BF8B7FF0
:1004F00085BFD998DA988BB31BBADB98DC98DD9866
:10050000DE98619878948895089585B78F7D85BF2A
:1005100010929700D99ADF9AD7DE619A10929700CD
:100520001092950010929400109296000895CCDEDF
:100530008AB386688ABBC29A8EB58C608EBD81E70D
:1005400092E09BBD8ABD619A85B7836085BFA895FF
:100550009EE088E10FB6F894A89581BD0FBE91BDCD
:1005600081B5806481BD7894909A8BB780658BBF8C
:100570008AB780618ABFFFCF1F920F920FB60F928A
:1005800011242F933F934F935F936F937F938F9398
:100590009F93AF93BF93EF93FF93F894809198004C
:1005A0008F5F80939800809198008A3070F08091DE
:1005B0009800893150F480919400909195000497AF
:1005C00020F480919300882311F180919800893163
:1005D00020F080919300813011F180919800833652
:1005E000A0F080919200813019F4909A10929200BC
:1005F000809197008F5F8093970010929800809170
:1006000096008C3308F069DFE7DE78940CC0DA9A44
:10061000909881E08093920080939300D6CF1092BF
:100620009300DA98DACFFF91EF91BF91AF919F914C
:100630008F917F916F915F914F913F912F910F908B
:100640000FBE0F901F9018951F920F920FB60F922A
:1006500011248F939F93809194009091950001961F
:1006600090939500809394009F918F910F900FBE6F
:100670000F901F9018951F920F920FB60F92112492
:100680008F9381B5806481BD8F910F900FBE0F90C5
:100690001F9018951F920F920FB60F9211242F934F
:1006A0003F934F935F936F937F938F939F93AF93FA
:1006B000BF93EF93FF93F89405B605FE02C025DFC4
:1006C00003C005B605FE09DF7894FF91EF91BF9155
:1006D000AF919F918F917F916F915F914F913F91DA
:1006E0002F910F900FBE0F901F901895AA1BBB1B48
:1006F00051E107C0AA1FBB1FA617B70710F0A61B22
:10070000B70B881F991F5A95A9F780959095BC0142
:10071000CD010895FB01DC0102C001900D92415012
:0A0720005040D8F70895F894FFCF79
:10072A00466C6F773A00546F6F206C6F7721002008
:10073A0020202020202020202020202020202020AF
:10074A0020202020202020202020004C2F6D696EA0
:02075A0000009D
:00000001FF
