S00A0000464D2E7372656387
S113000024C181C35AC33CC16FC33AC115C338C1AB
S113001037C136C135C134C133C132C131C130C138
S11300202FC10000000000000000002F00000000AD
S11300300700070000147F147F1400242A7F2A126B
S1130040006264081323003649552250000005035A
S1130050000000001C224100000041221C0000148A
S1130060083E08140008083E0808000000A06000CC
S1130070000808080808000060600000002010085C
S11300800402003E5149453E0000427F40000042C8
S113009061514946002141454B31001814127F102B
S11300A0002745454539003C4A494930000171095A
S11300B0050300364949493600064949291E00000E
S11300C036360000000056360000000814224100B5
S11300D000141414141400004122140800020151E5
S11300E0090600324959513E007C1211127C007FEE
S11300F049494936003E41414122007F4141221C89
S1130100007F49494941007F09090901003E4149ED
S1130110497A007F0808087F0000417F41000020E1
S113012040413F01007F08142241007F404040408D
S1130130007F020C027F007F0408107F003E4141D3
S1130140413E007F09090906003E4151215E007FBE
S1130150091929460046494949310001017F010135
S1130160003F4040403F001F2040201F003F4038D8
S1130170403F006314081463000708700807006117
S11301805149454300007F41410000552A552A55F5
S1130190000041417F00000402010204004040408D
S11301A04040000001020400002054545478007FB1
S11301B04844443800384444442000384444487F88
S11301C000385454541800087E0901020018A4A4ED
S11301D0A47C007F080404780000447D40000040B3
S11301E080847D00007F102844000000417F40008F
S11301F0007C04180478007C080404780038444423
S1130200443800FC242424180018242418FC007CFE
S11302100804040800485454542000043F44402077
S1130220003C4040207C001C2040201C003C40300E
S1130230403C004428102844001CA0A0A07C00449A
S113024064544C4414141414141411241FBECFE524
S1130250D1E0DEBFCDBF10E0A0E6B0E0EAEAF7E00F
S113026002C005900D92A23BB107D9F720E0A2EBA2
S1130270B0E001C01D92A73BB207E1F7B8D193C229
S1130280BFCE613011F4DC980DC0DC9A0BC088231A
S113029014F4DD9A01C0DD98DE98880FDE9A91503F
S11302A0B1F7089598E0F3CFCF93DF9361E08CE04A
S11302B0E8DF61E080E8E5DFC8EFD1E060E080E0FE
S11302C0E0DF2197D9F7DF91CF9108958AB38A6748
S11302D08ABBD998DB9884E08A95F1F7DB9A84E0AD
S11302E08A95F1F761E081E2CCDF61E081EAC9DF60
S11302F061E083E1C6DF61E084E0C3DF61E080E2C6
S1130300C0DF61E08CE0BDDFCFDF0895CF93C82F5D
S1130310862F61E08064B5DF61E08C2F8068B1DFF7
S1130320CF9108951F93CF93DF938052C82FD0E0CD
S1130330C80FD11DC80FD11DCC0FDD1FCE5DDF4FFF
S113034010E0FE01849160E09CDF1F5F219616306F
S1130350C1F7DF91CF911F910895CF93DF93EA0105
S1130360D5DF8881882329F02196DCDF89918111EA
S1130370FCCFDF91CF910895EF92FF920F931F93DB
S1130380CF93DF93CDB7DEB764970FB6F894DEBF93
S11303900FBECDBF7C01CB01009729F480E3F701A8
S11303A08083118215C01C8A21E030E0FE0174961E
S11303B00AE010E0B801DAD180638293862F972F88
S11303C02F5F3F4F0097B1F7A901BF01C701E2D1E9
S11303D064960FB6F894DEBF0FBECDBFDF91CF9108
S11303E01F910F91FF90EF90089585B7877E8061EC
S11303F085BF85B7806285BF85B7846885BF8B7FDD
S113040085BF8BB31BBADB98DC98DD98DE986198C6
S11304102FEF8EE994E2215080409040E1F700C034
S1130420000078948895089585B78F7D85BFDF9AFD
S11304304DDF619A1092B5001092B3001092B20091
S11304401092B400089540E650E060E080E285DF59
S113045045E650E061E080E080DF49E950E062E099
S113046080E07BDF44E750E063E080E076DF43E850
S113047050E065E08CE171DF8091B500833009F4D0
S113048013DF08950F931F93CF93DF93CDB7DEB798
S11304902A970FB6F894DEBF0FBECDBF8091B5008A
S11304A0843018F401DFCFDF97C08091B2009091BF
S11304B0B300849720F41092B3001092B20080919C
S11304C0B2009091B300892B09F07EC08091B400F2
S11304D0873408F473C078C01092B4002091B2003D
S11304E03091B300C901880F991F880F991F820F9B
S11304F0931F880F991F820F931F880F991F68EC11
S113050070E034D18B010C5C1F4FB801CE01019611
S113051033DF48E850E060E08BE11FDF4DE950E055
S113052062E083E21ADF41E950E064E080E015DF35
S11305300833110580F44EE850E063E084E10DDFF8
S11305404EE850E062E084E108DF43EA50E063E013
S113055084E103DF2EC004361105B0F448E950E00D
S113056063E08FE0FADE48E950E064E084E1F5DE20
S1130570AE014F5F5F4F63E083E2EFDE4CEA50E091
S113058064E089E1EADE15C047E950E063E08FE00A
S1130590E4DE47E950E064E084E1DFDEAE014F5F72
S11305A05F4F63E08FE1D9DE4CEA50E064E089E11B
S11305B0D4DE1092B3001092B2000EC08091B40049
S11305C08F5F8093B4008ACF8091B2009091B30082
S11305D0892B09F081CF82CF2A960FB6F894DEBF1B
S11305E00FBECDBFDF91CF911F910F9108956EDEA5
S11305F0D79AC29A8EB58B608EBD83E597E09BBD7A
S11306008ABD619A85B7836085BFA8959EE088E11D
S11306100FB6F894A89581BD0FBE91BD81B58064D5
S113062081BD7894909A8BB780658BBF8AB78061BF
S11306308ABFDF9ADADEFFCF1F920F920FB60F92B6
S113064011242F933F934F935F936F937F938F93D3
S11306509F93AF93BF93EF93FF93F8948091B60069
S11306608F5F8093B6008091B6008336A0F08091AE
S1130670B5008F5F8093B5008091B500853F19F474
S113068085E08093B5001092B6008091B4008C335D
S113069008F0ABDEF7DE7894FF91EF91BF91AF9154
S11306A09F918F917F916F915F914F913F912F9186
S11306B00F900FBE0F901F9018951F920F920FB6B8
S11306C00F9211248F939F938091B2009091B30065
S11306D001969093B3008093B2009F918F910F90F5
S11306E00FBE0F901F9018951F920F920FB60F9286
S11306F011248F9381B5806481BD8F910F900FBEBB
S11307000F901F9018951F920F920FB60F921124FD
S11307102F933F934F935F936F937F938F939F9305
S1130720AF93BF93EF93FF93F89405B605FE02C011
S11307307BDE07C005B605FC04C08091B50083309C
S113074010F4789402C051DEFCCFFF91EF91BF9179
S1130750AF919F918F917F916F915F914F913F9155
S11307602F910F900FBE0F901F901895AA1BBB1BC3
S113077051E107C0AA1FBB1FA617B70710F0A61B9D
S1130780B70B881F991F5A95A9F780959095BC01BE
S1130790CD010895FB01DC0102C001900D9241508E
S10D07A05040D8F70895F894FFCFF5
S11307AA28632920004D696B6861696C2049766168
S11307BA6E6F76006D6976616E6F7640336D2E6367
S11307CA6F6D0076312E3300466C6F773A00202025
S11307DA202020202020202020202020202020200B
S11307EA202000546F6F206C6F7721004C2F6D69A5
S10507FA6E008B
S9030000FC
