S00A0000464D2E7372656387
S113000024C141C31AC33AC12FC338C1DCC236C1AB
S113001035C134C133C132C131C130C12FC12EC148
S11300202DC10000000000000000002F00000000AF
S11300300700070000147F147F1400242A7F2A126B
S1130040006264081323003649552250000005035A
S1130050000000001C224100000041221C0000148A
S1130060083E08140008083E0808000000A06000CC
S1130070000808080808000060600000002010085C
S11300800402003E5149453E0000427F40000042C8
S113009061514946002141454B31001814127F102B
S11300A0002745454539003C4A494930000171095A
S11300B0050300364949493600064949291E00000E
S11300C036360000000056360000000814224100B5
S11300D000141414141400004122140800020151E5
S11300E0090600324959513E007C1211127C007FEE
S11300F049494936003E41414122007F4141221C89
S1130100007F49494941007F09090901003E4149ED
S1130110497A007F0808087F0000417F41000020E1
S113012040413F01007F08142241007F404040408D
S1130130007F020C027F007F0408107F003E4141D3
S1130140413E007F09090906003E4151215E007FBE
S1130150091929460046494949310001017F010135
S1130160003F4040403F001F2040201F003F4038D8
S1130170403F006314081463000708700807006117
S11301805149454300007F41410000552A552A55F5
S1130190000041417F00000402010204004040408D
S11301A04040000001020400002054545478007FB1
S11301B04844443800384444442000384444487F88
S11301C000385454541800087E0901020018A4A4ED
S11301D0A47C007F080404780000447D40000040B3
S11301E080847D00007F102844000000417F40008F
S11301F0007C04180478007C080404780038444423
S1130200443800FC242424180018242418FC007CFE
S11302100804040800485454542000043F44402077
S1130220003C4040207C001C2040201C003C40300E
S1130230403C004428102844001CA0A0A07C00449A
S113024064544C4414141414141411241FBECFED1C
S1130250CDBF10E0A0E6B0E0EEE3F7E002C0059009
S11302600D92A239B107D9F720E0A2E9B0E001C0AC
S11302701D92A739B207E1F77FD15FC2C1CE6130C9
S113028011F4DC9801C0DC9A98E087FF02C0DD9A83
S113029001C0DD98DE98880FDE9A9150B1F7089579
S11302A0CF93DF9361E08CE0EADF61E080E8E7DF91
S11302B0C8EFD1E060E080E0E2DF2197D9F7DF9179
S11302C0CF9108958AB388678ABBDB9884E08A95C6
S11302D0F1F7DB9A84E08A95F1F761E081E2CFDF00
S11302E061E081EACCDF61E083E1C9DF61E084E0C1
S11302F0C6DF61E080E2C3DF61E08CE0C0DFD0CF25
S1130300CF93C82F862F61E08064B9DF61E08C2F22
S11303108068CF91B4CF0F931F93CF93DF93805214
S113032090E066E070E0DBD18C01C0E0D0E0FE013B
S1130330E00FF11FEE5DFF4F849160E0A0DF219696
S1130340C630D105A1F7DF91CF911F910F91089588
S11303500F931F93CF93DF938A01D2DFE801899132
S1130360882311F0D8DFFBCFDF91CF911F910F913C
S11303700895EF92FF920F931F93CF93DF93CDB71E
S1130380DD27C451CDBFFC01CB01009721F480E3EC
S11303908083118218C01C8A01E010E09E012C5E4B
S11303A03F4F4AE0E42EF12CB701AAD18063D90172
S11303B08E939D01CB010F5F1F4F0097A9F7A801F2
S11303C0BD01CF01B1D1CC5ECDBFDF91CF911F91E3
S11303D00F91FF90EF90089585B7877E806185BF68
S11303E085B7806285BF85B7846885BF8B7F85BFED
S11303F0D998DA988BB31BBADB98DC98DD98DE9831
S1130400619878948895089585B78F7D85BFD99A2A
S1130410DF9A58DF619A109295001092930010921F
S11304209200109294000895809195008091950017
S11304308230B1F443E750E061E085E089DF88E28F
S11304408A95F1F741E750E062E084E181DF88E2D8
S11304508A95F1F743E750E064E080E079DF20CF4C
S113046008951F93CF93DF93CDB7DD27C451CDBF3C
S11304708091920090919300849720F410929300BD
S1130480109292008091920090919300892B09F030
S113049069C080919400873408F064C0809194000E
S11304A08F5F8093940080919500833010F4BCDFBB
S11304B04FC0809192009091930023E09695879588
S11304C02A95E1F712E3180F612F70E0CE010B9625
S11304D050DF6091940070E0CE0101964ADF40E65F
S11304E050E060E08BE134DF45E850E062E083E215
S11304F02FDF183350F446E650E063E084E128DF50
S113050046E750E064E084E122C04FE650E063E057
S11305108FE0143660F41CDF46E750E064E084E1C9
S113052017DFAE01455F5F4F63E083E20BC010DF6E
S113053046E750E064E084E10BDFAE01455F5F4FC6
S113054063E08FE105DF4BE850E064E089E100DF20
S11305501092930010929200CC5ECDBFDF91CF91A8
S11305601F9108958091920090919300892B09F432
S11305709ACF1092940097CFA5DE8AB386688ABB7F
S1130580C29A8EB58B608EBD83E597E09BBD8ABD14
S1130590619A85B7836085BFA8959EE088E10FB610
S11305A0F894A89581BD0FBE91BD81B5806481BDCD
S11305B07894909A8BB780658BBF8AB780618ABF25
S11305C0DF9A0ADFFFCF1F920F920FB60F9211240A
S11305D02F933F934F935F936F937F938F939F9347
S11305E0AF93BF93EF93FF93F894809196008F5F3E
S11305F08093960080919600833668F080919500F0
S11306008F5F8093950010929600809194008C33B4
S113061008F0E2DE26DF7894FF91EF91BF91AF916D
S11306209F918F917F916F915F914F913F912F9106
S11306300F900FBE0F901F9018951F920F920FB638
S11306400F9211248F939F93809192009091930025
S1130650019690939300809392009F918F910F90B5
S11306600FBE0F901F9018951F920F920FB60F9206
S113067011248F9381B5806481BD8F910F900FBE3B
S11306800F901F9018951F920F920FB60F9211247E
S11306902F933F934F935F936F937F938F939F9386
S11306A0AF93BF93EF93FF93F89405B605FE02C092
S11306B0ABDE03C005B605FE8FDE7894FF91EF91A3
S11306C0BF91AF919F918F917F916F915F914F9166
S11306D03F912F910F900FBE0F901F9018950024FB
S11306E0552704C0080E591F880F991F009729F039
S11306F076956795B8F37105B9F7802D952F089510
S1130700AA1BBB1B51E107C0AA1FBB1FA617B70733
S113071010F0A61BB70B881F991F5A95A9F780954F
S11307209095BC01CD010895FB01DC0102C001904C
S11107300D9241505040D8F70895F894FFCF31
S113073E466C6F773A00546F6F206C6F77210020F0
S113074E2020202020202020202020202020202097
S113075E20202020202020202020004C2F6D696E88
S105076E000085
S9030000FC
